:020000040800F2
:10000000B80C0020A90100080B300008F52A0008F0
:1000100009300008251600083136000800000000ED
:10002000000000000000000000000000E5310008B2
:100030004116000800000000093100088F32000856
:10004000C3010008C3010008C3010008C301000880
:10005000C3010008C3010008C3010008C301000870
:10006000C3010008C3010008C3010008C301000860
:10007000C3010008C3010008C3010008C301000850
:100080002916000835160008C3010008C30100083E
:10009000C3010008C3010008C3010008C301000830
:1000A000C3010008C3010008C3010008C301000820
:1000B000C3010008C3010008C3010008C301000810
:1000C000C3010008C3010008C3010008C301000800
:1000D000C301000825360008C3010008C301000859
:1000E000C3010008C3010008C301000800F002F8C2
:1000F00000F04AF80AA090E8000C82448344AAF178
:100100000107DA4501D100F03FF8AFF2090EBAE875
:100110000F0013F0010F18BFFB1A43F0010318473B
:10012000F05C0000105D0000103A24BF78C878C170
:10013000FAD8520724BF30C830C144BF04680C60ED
:10014000704700000023002400250026103A28BF35
:1001500078C1FBD8520728BF30C148BF0B60704739
:10016000662904F05685642900F05280002070470B
:100170001FB500F0FFFB04000020002104F070FB1D
:10018000E0601FBD10B510BD00F0F0FC1146FFF798
:10019000EFFF03F079FA00F00EFD03B4FFF7F2FF72
:1001A00003BC00F051FD00000948804709480047A2
:1001B000FEE7FEE7FEE7FEE7FEE7FEE7FEE7FEE717
:1001C000FEE7FEE704480549054A064B7047000074
:1001D000F1320008ED000008B8060020B80C00203D
:1001E000B8080020B80800200FB41CB5074B06AAB9
:1001F0007B4469460090059800F0A3FB0020694607
:1002000000F0B2FB1CBC5DF814FB00007507000099
:100210002DE9F0410646002410687529314616A5DF
:1002200010D0AFF30080002802DA404213A507E0A7
:1002300031688A0701D512A502E0490704D511A546
:10024000012401E0AFF3008000210A2206F1240717
:1002500009E0B0FBF2FCB0FBF2F302FB1C00303013
:1002600078541846491C0028F3D123462A463046C4
:10027000BDE8F04100F0FAB8000000002D000000D9
:100280002B000000200000002DE9F0474FF0000A8D
:1002900089460446C0F820A02046E1688847002827
:1002A00076D0252806D0D4E901219047206A401C49
:1002B0002062F1E7E168204600258847C4F81CA0C9
:1002C00006460027C4F818A02A2E09D0304603F0AD
:1002D000D4F938B304EB8708303EC8F8186019E049
:1002E00059F8041B204604EB87029161E1688847B6
:1002F000012F064618D1E069002820DA25F02005F4
:100300001DE0D8F8180000EB800006EB4000303804
:10031000C8F818002046E1688847064603F0ADF9A2
:100320000028EED1012F0AD02E2E08D12046E168F8
:1003300088477F1C0646022F45F02005C4DBA069D4
:10034000002803DA404245F00105A061E80701D02A
:1003500025F01005B6B1A6F14100192802D82036C3
:1003600045F400654A463146204625604D46FFF774
:10037000F7FE58B1012806D0ED1D25F0070000F169
:10038000080989E704E005F1040985E730468AE7B2
:10039000206ABDE8F08710B5431C02E010F8011B8D
:1003A00071B18107FAD14FF0013202C88C1A8C4327
:1003B00014EAC211F9D0C01A0A0603D0C01E10BD3B
:1003C000C01A10BD0A0401D0801E10BD0902FCD065
:1003D000401E10BD4FF000020429C0F0128010F042
:1003E000030C00F01B80CCF1040CBCF1020F18BF11
:1003F00000F8012BA8BF20F8022BA1EB0C0100F0A4
:100400000DB85FEAC17C24BF00F8012B00F8012B76
:1004100048BF00F8012B70474FF0000200B51346AB
:1004200094469646203922BFA0E80C50A0E80C5014
:10043000B1F12001BFF4F7AF090728BFA0E80C50C5
:1004400048BF0CC05DF804EB890028BF40F8042BBE
:1004500008BF704748BF20F8022B11F0804F18BF2B
:1004600000F8012B70477047704770472DE9F0473F
:100470000D4699469246044600F124080168880614
:1004800004D5E06921F01001216000E00120A842BC
:1004900001DD471B00E00027A1697A1902EB090082
:1004A000081AA0612078C00602D42046AFF300806D
:1004B000002608E0D4E901211AF806009047206AD6
:1004C000401C761C20624E45F4DB2078C0060AD51D
:1004D0002046AFF3008006E0D4E9012130209047A8
:1004E000206A401C2062381EA7F10107F4DC07E0F7
:1004F000D4E9012118F805009047206A401C2062C9
:10050000281EA5F10105F3DC2046AFF3008020781A
:10051000000602D50220BDE8F0870120FBE7704706
:100520002DE9FF4F0C461E464FF0FF378BB0D2E946
:100530000001DDF860800A908A46C1F30A5505B9CA
:100540003D46002108464FF00000BAF1000F00F4CC
:10055000400005DA00EB80004FF4400101EA500052
:100560004FEA9059B9F1010F00DDB9460A9850EAF7
:100570004A000ED044F61050A5F2FF3545432F1423
:10058000B8F1000F1ED07542291E1EDDC9F1000210
:100590001CE0B8F1010F4FF0000001D0302103E062
:1005A000F24305E02154401CB042FBDB3046002200
:1005B000002121540B99C1F80880C1E900200FB037
:1005C000BDE8F08FBD1B6D1CDEE74A4600DA6942CC
:1005D00006A800F059FA06AB93E8070003AB83E8DE
:1005E000070050460A9900F036FB8DE80700A0F599
:1005F00000501F3800900398002D09DD42F21F01C2
:100600004A46084403A90390684600F095FD08E0B7
:10061000A0F500504A461F3803A90390684600F031
:100620009FFD8DE807000004000C03D04FF0FF3061
:10063000410800E01046B8F1000F03D000220092FC
:1006400015461EE0751E05D400F098F9303262554B
:100650006D1EF9D5B3460122084302D000227F1C4B
:1006600004E02078302801D100227F1E002A09975B
:1006700086D01DE0112D07DA00F080F93032625586
:100680006D1C50EA0102F5D1084302D00098C8B1B0
:100690000EE00021681E05E0235C625C6354225476
:1006A000401E491C8142F7DBAB46A81B401E099047
:1006B000002004F80B000B98099AC0F80880C0E9E4
:1006C000002B7CE711264FF0000859E72DE9F04F89
:1006D00088460446D21D22F0070191B0D1E90001FD
:1006E000CDE90A0102F0A5FF02460B98C00F01D028
:1006F0002D2007E02068810701D52B2002E0202172
:1007000001EAC000032A099001D0072A05DB03464D
:100710004146204600F078F90BE12078800601D5AB
:10072000E06900E00620B8F1650F814606D0B8F117
:10073000660F18D0B8F1670F70D131E00020B9F121
:10074000110F009001DB112301E009F101030AAA56
:1007500001A90CA8FFF7E4FEDDE90C70002609F101
:100760000105834647E001204B4600904FF00047CB
:100770000AAA01A90CA8FFF7D3FEDDE90DB00C9978
:100780005D46002610B909F101000D18B9EB05000E
:1007900003D4C0F1FF3609F10105A5EB09002BE0F8
:1007A000B9F1010F01DA4FF001090020B9F1110F81
:1007B0000090484601DD112300E003460AAA01A982
:1007C0000CA8FFF7ADFEDDE90C704D460026834610
:1007D000207800070AD4AB4500DA5D4601A8012D58
:1007E00004DD411911F8011C302907D04F4502DA08
:1007F00017F1040F04DA012082460FE06D1EEEE7C8
:10080000002F02DCED1B3E4403E0781CA84200DD13
:100810007D1CB81B00F1010A4FF00047207800074B
:1008200003D4AA4501DB4FF0FF3A0021B7F1004F96
:100830000DF143088DF8431024D002202B23002F04
:1008400001DA7F422D230A21021EA0F1010000DC03
:100850005FB197FBF1FC97FBF1F201FB1C7C1746A3
:100860000CF1300C08F801CDEEE7A8F1010003709F
:100870002188090501D5452100E06521A0F1010885
:1008800000F8011C09980FA9A1EB0807FF1D00B192
:100890000120411901EBEA70A1693844081A401E91
:1008A000A0612078C00602D42046AFF300800998EA
:1008B00028B1D4E901219047206A401C20622078A9
:1008C000C00622D52046AFF300801EE0002E04DBD8
:1008D000B34502DD01A8805D00E03020D4E90121AC
:1008E0009047206A401C2062761CAAF101005FEA52
:1008F000000A0AD100F03EF8C0680168405CD4E903
:1009000001219047206A401C2062281EA5F10105A4
:10091000DCDC07E0D4E9012118F8010B9047206ADC
:10092000401C2062381EA7F10107F3DC2046AFF31C
:100930000080032011B043E601694A1C0261087877
:10094000704700B58FB0CDE901310021059105490F
:100950007944CDE9031011466846FFF795FC0FB0C6
:1009600000BD0000E5FFFFFF0A6802F8010B0A6006
:1009700070470000004870477806002030B5B0F19D
:100980000A024FEA900E71F100034EEA817EB0EB4D
:100990000E0061EB91014FEA101E4EEA017E10EB52
:1009A0000E0041EB11114FEA102E4EEA016E10EBD2
:1009B0000E0041EB11214FEA104E4EEA014E10EBB2
:1009C0000E0041EB1141401841F100014FEAD00007
:1009D00040EA41704FEAD10110EB80054FEA8104F3
:1009E00044EA907444EB01046D1944EB0404521B77
:1009F000A3414FF0000348BF0A3200D530BD401C70
:100A000041F1000130BD00002DE9F0411F460446D0
:100A100003260168072A01F4006004DB08B116A56B
:100A200005E016A503E008B115A500E015A521F025
:100A300010002060A069C01EA0610FB1401EA0611F
:100A40002046AFF300804FB1D4E9012138469047EA
:100A5000206A401C2062C01C206206E0206AFAE77F
:100A6000D4E9012115F8010B9047761EF8D22046F3
:100A7000AFF30080BDE8F0814E414E006E616E0024
:100A8000494E4600696E66002DE9F04781461646DC
:100A90008AB0334878440DC88DE80D00304878445A
:100AA000801C03AC0DC884E80D0041F69B3008445F
:100AB000372190FBF1F290FBF1F5A5F1800501FBE8
:100AC00012041B3C02D56442012000E00020DFF844
:100AD00090A080460027FA44AAF1BE0A0DE0E00784
:100AE00009D03246684607EB47010AEB810100F066
:100AF00037FB8DE8070064107F1C002CEFD1184FE6
:100B00007F44AC3F18E0E80714D007EB04100DF168
:100B1000180A90E80E008AE80E00C068F04201D181
:100B200098190890324606A903A800F019FB03ABF8
:100B300083E807006D10641C002DE4D1324669463D
:100B4000B8F1000F03A802D000F0F6FA01E000F0BF
:100B500007FBC9E90001C9F808200AB0BDE8F08721
:100B60006053000000487047580600207546FFF7A4
:100B7000F9FFAE4605006946534620F0070085465A
:100B800018B020B5FFF71EFBBDE820404FF000066F
:100B90004FF000074FF000084FF0000B21F0070165
:100BA000AC46ACE8C009ACE8C009ACE8C009ACE8A8
:100BB000C0098D46704710B50446AFF3008020464B
:100BC000BDE81040FFF7E9BA4FF0013C50F8042BA4
:100BD00051F8043B9A4221D1A2EB0C03934313EA50
:100BE000CC1317D150F8042B51F8043B9A4215D17D
:100BF000A2EB0C03934313EACC130BD150F8042B54
:100C000051F8043B9A4209D1A2EB0C03934313EA37
:100C1000CC13DBD04FF00000704700BFD01A01BAF0
:100C2000B1FA81F101F0180122FA01F0CB40C1F1D3
:100C30002001DBB2C0B2C01A2CFA01F3D11A9143E1
:100C400011EAC311E6D1704701491820ABBEFEE797
:100C50002600020070475FEA400C08BF91F0000FC9
:100C60004FEA8C234FEAC12243EA51514FEA1C500C
:100C700018BF00F5F0404FEA300018BF41F00041C6
:100C80005FEA6C5C00F02980BCF1FF3F08BF40F0D8
:100C900080407047130C06BF12044FF0100C4FF049
:100CA000000C130E04BF12020CF1080C130F04BF4A
:100CB00012010CF1040C930F04BF92000CF1020C12
:100CC000D30F04BF52000CF1010C11464FF000028B
:100CD000A0F11F00A0EB0C00704711F0004F08BFFF
:100CE000704731F000413FF4D5AF0B0C06BF09044B
:100CF0004FF0100C4FF0000C0B0E04BF09020CF16A
:100D0000080C0B0F04BF09010CF1040C8B0F04BF7E
:100D100089000CF1020CCB0F04BF49000CF1010C4F
:100D2000CCF12003A0EB0C0022FA03F302FA0CF240
:100D300041EA030100F10100704720F07F4C80EA96
:100D4000030023F07F47ACEB070303F57C5300F06F
:100D5000004003F1FF032DE980494FEA154B09B428
:100D60004FEA144325EA0B4E24EA03480FF2042607
:100D700006EB132749083E785FEA320203FB066759
:100D8000C7F5000707FB06F64FEA54374FEAD64689
:100D900006F1020607FB066CCCF1005C4FEA1C472B
:100DA0002CEA074C07FB06F40CFB06F504EB154692
:100DB0004FEA961634BF00204FF000404FEAD1377B
:100DC00006FB07FC4FEA1C4C0CFB0BF7D21B03FB8A
:100DD0000CF761EB07010CFB0EF7B0EB074072EB71
:100DE00017420CFB08F734BFA2EB0742B2EB0742F5
:100DF00061EB17414FEA0C444FEA910706FB07FCF1
:100E00004FEA1C4C0CFB0BF7B0EBC74072EB5732B0
:100E100003FB0CF734BFA2EBC742B2EBC74261EB56
:100E200057310CFB0EF7B0EBC70072EB57720CFB9F
:100E300008F734BFA2EBC702B2EBC70261EB5771F0
:100E4000039F4FEA816141EA921104EBCC044FEA1F
:100E5000D1374FEA826206FB07FC42EA90124FEA62
:100E600080604FEA1C4C0CFB0BF7D21B03FB0CF70A
:100E700061EB07010CFB0EF7B0EB074072EB17427A
:100E80000CFB08F734BFA2EB0742B2EB074261EB61
:100E900017414FEA8C554FEA910704EB9C2406FB5F
:100EA00007FC4FEA1C4C0CFB0BF7B0EBC74072EB96
:100EB000573203FB0CF734BFA2EBC742B2EBC74279
:100EC00061EB57310CFB0EF7B0EBC70072EB5772BA
:100ED0000CFB08F734BFA2EBC702B2EBC70261EB11
:100EE000577115EB4C254FEA816141EA92114FEAA7
:100EF00082624FEAD13742EA901206FB07FC44F1C6
:100F000000044FEA80604FEA1C4C0CFB0BF7D21B2D
:100F100003FB0CF761EB07010CFB0EF7B0EB07408E
:100F200072EB17420CFB08F734BFA2EB0742B2EB9F
:100F3000074261EB174115EB1C154FEA813141EA7D
:100F400092414FEA823242EA90424FEA80304FEAC1
:100F50000C7644F1000448EA03434EEA0B484FF094
:100F6000000EB2EB080C71EB030724BF6246394652
:100F70004EEB0E0E4FF0000B0018524149414BEB67
:100F80000B0BB2EB080C71EB03077BF1000B24BFDA
:100F9000624639464EEB0E0E4FF0000B00185241E0
:100FA00049414BEB0B0BB2EB080C71EB03077BF1E8
:100FB000000B24BF624639464EEB0E0E51EA020783
:100FC00018BF46F0010616EB0E7655F1000254F1FB
:100FD000000103D5BDE88901BDE80088BDE88901AD
:100FE000BDE80048B619524141EB0101A3F10103EC
:100FF000704780807F7E7D7C7B7A79787776767586
:101000007473727171706F6E6E6D6C6C6B6A6A69FD
:101010006868676666656464636362616160605F97
:101020005F5E5E5D5D5C5C5B5B5A5A595958585710
:101030005756565555555454535352525251515078
:1010400050504F4F4F4E4E4D4D4D4C4C4C4B4B4BCB
:101050004A4A4A4949494848484747474746464611
:10106000454545444444444343434342424242414C
:101070004141002B26D4770021D01CB54FEA370719
:1010800003B44FF010004FF010014FF000000FBC00
:10109000BDE810400BF1010BBBF1010F08BF5FEA87
:1010A000170722BF12F1010211F101014FF00041B7
:1010B00043F1000300F0004043EA00007047F9D319
:1010C0005708DAE746EA064613F1400F4FEA16469C
:1010D0001FDD13F1200FDFBF16430A460021203326
:1010E0005B42C8D0C3F1200746EA064602FA07F77A
:1010F0004FEA164646EA0706C3F1200722FA03F232
:1011000001FA07F721FA03F14FF0000342EA070260
:10111000B1E746EA020646EA06464FEA164646EABE
:101120000106BCBF46EA0646360C4FF000034FF0FE
:1011300000024FF000019EE72DE9C048934630B40D
:1011400091E8380007C831EA400C48BF34EA430C44
:1011500003D5FFF7F2FDFFF78CFFF0BCBDE8008878
:101160002DE9C048934630B491E8380007C810F024
:10117000804F08BF13F0804F03D100F005F8FFF750
:1011800078FFF0BCBDE8008820F07F4780EA0300CC
:1011900023F07F4C07EB0C03A3F57C5300F00040D9
:1011A000A3F1FE0392F0000F00F0B38095F0000F62
:1011B00000F077802DE901494FEA11404FEA1446CB
:1011C00021EA004800FB06FC24EA064708FB06F675
:1011D00007FB08F800FB07F718EB06484CEB164C2A
:1011E0004FEA124B18EB07484FEA15464CEB1740F5
:1011F00022EA0B4E0BFB06FC25EA06470EFB06F621
:1012000007FB0EFE0BFB07F71EEB064E4CEB164CD6
:101210004FF000061EEB074E4CEB174B18EB0B087C
:1012200040F1000018EB0E0B58EB000840F10000F5
:101230008F1A4FF000013CBFC943661B14BFB5EBCA
:10124000040C00213CBFC943F61B4FEA17444EEA89
:101250008E0E27EA04454FEA1C4704FB07622CEA7E
:10126000074C05FB07F70CFB05F604FB0CFC16EB23
:10127000074642EB174216EB0C4642EB1C421BEBB7
:10128000060658EB0202414146EA9E0601D5BDE83A
:101290000189B619524141EB0101A3F10103BDE8F7
:1012A00001894FEA14454FEA114724EA054621EA2D
:1012B000074C05FB07F406FB07F70CFB06F105FBE3
:1012C0000CFC11EB074144EB17444FEA124711EBBA
:1012D0000C4144EB1C4422EA074C05FB07F206FBD9
:1012E00007F70CFB06F605FB0CFC16EB074642EB7A
:1012F000174216EB0C4642EB1C456A1854F10001EC
:1013000048BF7047B619524141EB0101A3F10103F7
:10131000704795F0000F37D04FEA11424FEA14475B
:1013200021EA024624EA074C02FB07F106FB07F715
:101330000CFB06F402FB0CFC14EB074441EB1741D9
:101340004FEA154714EB0C4441EB1C4125EA074CCE
:1013500002FB07F506FB07F70CFB06F602FB0CFC8D
:1013600016EB074645EB174516EB0C4645EB1C42C2
:10137000121951F1000148BF7047B619524141EBB3
:101380000101A3F1010370474FEA14454FEA1147E9
:1013900024EA054621EA074C05FB07F106FB07F79F
:1013A0000CFB06F24FF0000605FB0CFC12EB0742AB
:1013B00041EB174112EB0C4251EB1C4148BF704707
:1013C000921841EB0101A3F10103704710B501F040
:1013D0000BFD01F0F5FB702000F0FFF801F096FE28
:1013E000A82000F0FAF801F091FE002000F0F5F8D6
:1013F00001F08CFE002000F0F0F801F087FE01F013
:1014000034FF0A2000F01DF901F0DAFB702000F033
:10141000E4F801F07BFEBE2000F0DFF801F076FE7C
:10142000082000F0DAF801F071FE002000F0D5F895
:1014300001F06CFE01F019FFBDE810400A2000F039
:1014400000B900002DE9F041002501F08DFE01F00A
:1014500093FE082001F0FFFE0024114F01F07CFEF6
:1014600000F009F900268021384600F065FB00B144
:10147000012646EA4500C5B200224021384600F068
:1014800060FB00F0F8F8641CE4B2082CE6D301F02D
:1014900073FE082001F0DFFE2846BDE8F081000061
:1014A000000C0140F0B587B0002105468DF804100E
:1014B0008DF810108DF80C108DF814108DF80810A0
:1014C0008DF804100E460C4600F06CF8502000F029
:1014D000B8F840F2E45707E0384601F0BCFE204679
:1014E000641CA4B2642803D200F04BF80006F3D4C5
:1014F00001F066FB712000F070F801F007FEFFF7C5
:10150000A1FF8DF8040001F06EFEFFF79BFF8DF840
:10151000100001F068FEFFF795FF8DF80C0001F058
:1015200062FEFFF78FFF8DF8140001F05CFEFFF7FD
:1015300089FF8DF8080001F056FEFFF783FF8DF854
:10154000040001F06CFE01F090FE9DF810009DF883
:101550000C10064341EA06209DF8141041EA0020D1
:10156000000928609DF814009DF8081041EA002049
:101570009DF8041041EA0020C0F31300686007B032
:10158000F0BD10B501F01CFB712000F026F801F051
:10159000BDFDFFF757FF044601F041FE01F065FE77
:1015A000204610BD10B501F00BFB702000F015F8BF
:1015B00001F0ACFDAC2000F010F801F0A7FD3320E5
:1015C00000F00BF801F0A2FD002000F006F801F099
:1015D0009DFDBDE8104001F048BE70B5054680266F
:1015E000002401F0C1FD00F037F82E4202D001F0D6
:1015F000D1FD01E001F0E2FD01F0AEFD00F02CF8BC
:101600006806641C050EE4B2082CEAD301F0ACFDB8
:10161000082001F020FE01F0AFFDBDE87040082079
:1016200001F019BEFEE70000014800F0ABB8000071
:1016300004010020014800F0A5B80000C00000200F
:10164000704710B503464FF47A7402E0204601F06B
:1016500002FE5B1EFAD210BD00B5012000F01DF89D
:10166000012000F01AF8012000F017F801205DF8C1
:1016700004EB00F012B800B5012000F00EF80120D4
:1016800000F00BF8012000F008F8012000F005F848
:1016900001205DF804EBAFF30080401EFDD27047DF
:1016A00072B6FEE710B590F821100022022905D08D
:1016B0000421816380F82020012010BD01680B689F
:1016C00023F00E030B6001680B6823F001030B602D
:1016D00090F84030C46B012101FA03F3636080F895
:1016E000211080F82020104610BD000010B590F8A1
:1016F00021100024022903D00421816301243DE04C
:1017000001680A6822F00E020A6001680A6822F085
:1017100001020A601A4A0168914201D1012121E0C7
:10172000174A1432914201D110211BE0144A283289
:10173000914201D1891515E0114A3C32914201D103
:1017400089140FE00E4A5032914202D14FF4803199
:1017500008E00B4A6432914202D14FF4801101E05B
:101760004FF08071064A083A5160012180F821103B
:10177000002180F82010416B01B18847204610BD40
:10178000080002402DE9F05FC16B0C6801680B682E
:10179000D0F840C0042202FA0CF2494DDFF824A12F
:1017A000494E4A4FDFF828B1DFF828E122422CD019
:1017B0005A072AD50A68920603D40A6822F004025E
:1017C0000A600168A94201D1042219E0514501D102
:1017D000402215E0B14202D14FF4806210E0B942DC
:1017E00002D14FF480420BE0594502D14FF48022E0
:1017F00006E0714502D14FF4800201E04FF08062B3
:101800002F4908394A60C16A3BE04FF0020808FAE4
:101810000CF818EA040F4FF000094FF0010235D020
:101820005FEA837832D50B689B0605D40B6823F0FA
:101830000A030B6080F821200168A94201D102222D
:1018400019E0514501D1202215E0B14202D14FF4F7
:10185000007210E0B94202D14FF400520BE059453A
:1018600002D14FF4003206E0714502D14FF400126C
:1018700001E04FF00072124908394A6080F8209068
:10188000816A00291AD0BDE8F05F0847082505FAEB
:101890000CF5254212D01B0710D50B6823F00E0360
:1018A0000B6090F84010C36B02FA01F1596082633B
:1018B00080F8212080F82090016BE2E7BDE8F09FDE
:1018C000080002401C000240300002404400024078
:1018D000580002406C00024030B528B308C81349D4
:1018E00014221944B1FBF2F18900C16310498163EC
:1018F000022141771A6843F6F0718A43D0E9001457
:101900002143D0E902452C43214304692143446922
:10191000214384692143114319600021416301225D
:1019200042770177084630BD012030BDF8FFFDBF8A
:101930000000024070B5044600F008F90546601C3E
:1019400002D004480078044400F000F9401BA04293
:10195000FAD370BD000000202DE9F84FDFF8B891F0
:101960000024A9F1040B23460F2709F1040AABF167
:10197000040EC9E00125A5402A40AA427DD1674E48
:10198000D1F804C0ACEB0608B44532D014DCBCF18D
:10199000030F3AD009DCBCF1000F2AD0BCF1010FD3
:1019A0001CD0BCF1020F31D11DE0BCF1110F17D0DA
:1019B000BCF1120F2AD119E0B8F5881F19D006DC46
:1019C000B8F5803F15D0B8F5801F1FD111E0B8F5EC
:1019D000001F0ED0B8F5041F18D10AE0CB6815E03F
:1019E000CB681B1D12E0CB6808330FE0CB680C33CB
:1019F0000CE08B682BB1012B4FF0080303D045613D
:101A000004E0042302E0056100E00023FF2A01D87E
:101A1000064601E000F104064FEA840501D9A5F16C
:101A20002005D6F8008007FA05FC28EA0C0803FA1E
:101A300005F548EA0508C6F800804D68ED0062D556
:101A4000374DAE6946F00106AE61AD6924F003067C
:101A500005F001050095334D06EB050CDCF8085048
:101A6000A607360F07FA06F825EA0805DFF8B8805A
:101A7000404503D14FF0000817E044E0DFF8AC80A8
:101A8000404502D14FF001080FE0DFF8A480404547
:101A900002D14FF0020808E0DFF89880404502D1FB
:101AA0004FF0030801E04FF0040808FA06F848EA8E
:101AB0000508CCF808804D68D9F80060ED024D4665
:101AC00001D5164300E096432E604D68DAF80060B9
:101AD000AD02554601D5164300E096432E604D6891
:101AE000DBF80060AD035D4601D5164300E0964388
:101AF0002E604D68DEF80060ED03754601D5164393
:101B000000E096432E60641C0D682A46E5407FF491
:101B100031AFBDE8F88F000008040140000011104B
:101B2000001002400000014000080140000C01408C
:101B300000100140001401408068084000D00120DE
:101B400070470AB1016170470904FBE701488068EA
:101B5000704700000000002070B5040025D094F804
:101B60003D00002520B984F83C50204600F04EF995
:101B7000242084F83D002068016821F00101016003
:101B80002068016841F4004101602068016821F487
:101B90000041016000F0E4FA4D4A6168914201D8C9
:101BA0004C4900E04C49884201D2012070BD4B49AC
:101BB0002368B0FBF1F15E6826F03F060E435E60DD
:101BC0006368934206D94FF4967359434FF47A737E
:101BD000B1FBF3F12368491C1E6A26F03F0631432E
:101BE00019626168914210D84900401EB0FBF1F2C1
:101BF000521CC2F30B02042A01D2042022E0B0FBE3
:101C0000F1F0401CC0F30B001CE0A268F2B301EB42
:101C1000C10303EB0116431EB3FBF6F35B1C43F455
:101C200080431B0549D092B301EBC10202EB0111C5
:101C3000401EB0FBF1F0401CC0F30B0040F48040AC
:101C400040F400402168CA694CF6FF739A43104380
:101C5000C861D4E9071001432068026822F0C0027D
:101C600011430160D4E9030101432068826848F20E
:101C7000FF339A4311438160D4E905010843216889
:101C8000CA6822F0FF021043C86001E00EE016E0CF
:101C90002068016841F0010101602564202084F87A
:101CA0003D00256384F83E50002070BD01EB4106E5
:101CB000431EB3FBF6F35B1CB3E70120C2E701EB65
:101CC0004101401EB0FBF1F0401CC0F30B00B7E730
:101CD000A086010080841E0000093D0040420F00E4
:101CE0002DE9F84F1F4690468A460446DDF82890B5
:101CF000FFF72CFF054694F83D0020287FD11923DB
:101D0000012240492046009500F09CFF002876D132
:101D100094F83C00012872D0012084F83C0020682F
:101D20000168C90703D1016841F001010160206821
:101D3000016821F400610160212084F83D00102039
:101D400084F83E0000262664C4F824806785608DF0
:101D500020852D48E0622B464A465146204600F039
:101D6000E1FE90B9206841698069009036E02A461A
:101D70004946204601F00CF850B1206C042804D1EB
:101D80002068016841F4007101600120BDE8F88F0E
:101D9000606A216800780861606A401C6062618D39
:101DA000491E6185218D491E89B2218522685369AA
:101DB000DB435B070BD451B100781061606A401CB3
:101DC0006062608D401E6085208D401E20852A4601
:101DD0004946204600F00BFF0028CED1208D002878
:101DE000C5D154F83D0B016841F400710160202019
:101DF00004F81E09E67766770020C7E7FFE70220B0
:101E0000C4E70000020010000000FFFFF0B585B03D
:101E1000002400940194029403940646334F026810
:101E2000334D12200321334BBA4241D1AA6942F00B
:101E30000802AA61AA69039102F008020492C02272
:101E4000CDE9002069461846FFF786FDE86940F4B1
:101E50000010E861E869294D00F40010049026485C
:101E6000C5E900048027C5E902472C616C61AC61BB
:101E70002846EC61FFF730FD08B1FFF711FCB563B0
:101E80006E621E4D1C484435143801C5102091C5A2
:101E90001A4845F8104944306C61AC61EC61FFF7B9
:101EA0001BFD08B1FFF7FCFB75636E6205B0F0BD6A
:101EB000134CA242FAD1AA6942F00802AA61AA69A7
:101EC000039102F0080204924FF44062CDE9002031
:101ED00069461846FFF740FDE86940F48000E86174
:101EE000E86900F480000490E0E70000005400403E
:101EF00000100240000C014080000240C0000020A1
:101F0000005800400248816802781144816070479F
:101F100000000020074810B5016841F01001016081
:101F2000032000F075F80F2000F006F800F024F808
:101F3000002010BD0020024070B50D4D04464FF446
:101F40007A712878B1FBF0F00A490968B1FBF0F02A
:101F500000F0DCFA48B9102C07D200222146501EAE
:101F600000F036F800206C6070BD012070BD0000EC
:101F7000000000200C0000200C4808B5816941F0E9
:101F800001018161816901F001010091C16941F0A4
:101F90008051C161C06900F08050009004484168E0
:101FA00021F0E06141F00071416008BD0010024085
:101FB00000000140002809DB00F01F0201219140D0
:101FC0004009800000F1E020C0F8001170470000D7
:101FD000F0B40E4B1B680C46C3F30223C3F1070594
:101FE000042D00D90425191D072901D2002300E082
:101FF000DB1E012606FA05F1491E214099409E404C
:10200000761E16403143F0BC01F027BB0CED00E01A
:10201000064900F0070208684FF6FF03184040EA3F
:102020000220034A10430860704700000CED00E0F6
:102030000000FA052DE9F0470F46050061D0434E38
:10204000306800F00700B84209D2306820F007007D
:1020500038433060306800F00700B84251D128683A
:102060003B4C810712D5400703D5606840F4E0601F
:1020700060602878000703D5606840F460506060B5
:102080006068A96820F0F000084360602878C00705
:1020900028D06868012810D02168022810D089074C
:1020A00000292EDA616821F0030101436160FFF726
:1020B0004DFD804641F288390DE021688903EFE744
:1020C0008901EDE7FFF742FDA0EB0801494502D980
:1020D0000320BDE8F0876068696800F00C00B0EB91
:1020E000810FEFD1306800F00700B8420BD930689B
:1020F00020F0070038433060306800F00700B84235
:1021000001D00120E5E72878400705D56068E96837
:1021100020F4E060084360602878000706D5606816
:10212000296920F4605040EAC100606000F038F88E
:102130006168084AC1F30311515CC8400649086050
:1021400006480068FFF7F8FE0020C2E700200240C2
:1021500000100240E84C00080C00002004000020A1
:102160000448054900684968044AC1F30221515CEA
:10217000C84070470C00002000100240F84C0008D6
:102180000448054900684968044AC1F3C221515C0A
:10219000C84070470C00002000100240F84C0008B6
:1021A0000E4A51680E4801F00C03042B11D0082B85
:1021B0000FD10C48C1F38343C903C05C0AD55168F1
:1021C000084AC1F34041921E515C054A5043B0FB9E
:1021D000F1F0704704494843704700000010024086
:1021E00000127A00D84C000800093D002DE9F84F94
:1021F000040070D02078C04DC00749D06868C0F393
:102200008100012807D06868C0F38100022809D145
:102210006868C00306D52868800339D5606800283F
:10222000E7D035E06068B0F5803F0BD010B1B0F575
:10223000A02F11D0286820F480302860286820F46E
:10224000802002E0286840F480302860606890B107
:10225000FFF77CFC06460AE0286840F480202860EE
:10226000F0E700BFFFF772FC801B642873D8286872
:102270008003F7D50CE0FFF769FC064605E000BFD8
:10228000FFF764FC801B6428F0D828688003F7D42B
:1022900020789A4E80074FF001094FF0000839D599
:1022A000686810F00C0F07D06868C0F3810002283E
:1022B00009D16868C00306D42868800714D520694E
:1022C000012808D110E02069B0B1C6F80090FFF7EE
:1022D0003DFC074605E00AE1FFF738FCC01B022879
:1022E000C4D828688007F7D52868616920F0F8000D
:1022F00040EAC10028600DE0C6F80080FFF726FC28
:10230000074604E0FFF722FCC01B022823D82868F8
:102310008007F7D4207800072CD57948A169D9B176
:10232000C0F80090FFF712FC074604E0FFF70EFC30
:10233000C01B02280FD8686A8007F7D571484FF490
:10234000FA510068B0FBF1F0009000BF0098411E08
:102350000091FAD20EE080E0C0F80080FFF7F6FBB3
:10236000074604E0FFF7F2FBC01B022875D8686A35
:102370008007F7D42078400760D5E8690027C000BF
:1023800008D4E86940F08050E861E869012700F06E
:10239000805000905C480168C90513D401688346E9
:1023A00041F480710160FFF7D1FB824606E000BF77
:1023B000FFF7CCFBA0EB0A0064284ED8DBF8000046
:1023C000C005F5D5E06801280AD008B1052813D06A
:1023D000286A20F001002862286A20F0040002E048
:1023E000286A40F001002862E06841F2883B98B119
:1023F000FFF7ACFB82460BE0286A40F0040028623D
:10240000EEE700BFFFF7A2FBA0EB0A0159455AD83F
:10241000286A8007F6D50CE0FFF798FB824605E0B6
:10242000FFF794FBA0EB0A0159454CD8286A8007B6
:10243000F6D41FB1E86920F08050E861E06988B304
:102440006968C1F38101022944D00228C6F860807E
:1024500004D0FFF77BFB044638E034E0FFF776FB5F
:10246000074604E0FFF772FBC01B02282BD8286840
:102470008001F7D4206AB0F5803F05D16868A16873
:1024800020F4003008436860D4E908010843696813
:1024900021F4741108436860C6F86090FFF756FB9A
:1024A000044606E025E000BFFFF750FB001B0228B2
:1024B00009D828688001F7D51BE000BFFFF746FB6D
:1024C000001B022802D90320BDE8F88F286880018C
:1024D000F4D40EE00128F7D06868226A00F4803155
:1024E000914204D1616A00F47010884201D0012049
:1024F000EAE70020E8E70000001002400000424246
:10250000800442420C0000200070004010B5401EC4
:10251000B0F1807F01D3012010BD4FF0E024606155
:102520000F21601701F099F80020A06107202061B9
:10253000002010BD70B590F83C20012A26D001245F
:1025400080F83C40022280F83D2003685A689D686C
:1025500022F070060A6832435A600D4B02689A42B4
:1025600008D0B2F1804F05D00A4B9A4202D00A4BF4
:102570009A4204D1496825F080031943916080F89C
:102580003D40002180F83C10084670BD022070BD1F
:10259000002C0140000400400008004010B5040079
:1025A00003D094F83D0010B107E0012010BD0020D9
:1025B00084F83C00204600F01FF8022084F83D001B
:1025C000211D206800F096FE012084F8460084F862
:1025D0003E0084F83F0084F8400084F8410084F80D
:1025E000420084F8430084F8440084F8450084F8ED
:1025F0003D00002010BD000008B500680649884273
:1026000008D10648816941F400618161806900F464
:102610000060009008BD0000002C01400010024046
:1026200070B5044690F83C000025012817D001261B
:1026300084F83C60022084F83D002068826822F023
:10264000770222F47F4282600868502838D00DDC7F
:1026500020284FD005DC90B3102811D14AE0022089
:1026600070BD302846D040280AD13BE060282FD0EA
:1026700070280DD0B0F5805F03D0B0F5005F12D0A8
:10268000012584F83D60002084F83C00284670BD98
:10269000CB68D1E90121206800F068FE20688168DC
:1026A00041F0770109E0CB68D1E90121206800F011
:1026B0005DFE2068816841F480418160E1E719E0B6
:1026C000CA684968206800F063FE5021206806E06F
:1026D000CA684968206800F06CFE6021206800F03C
:1026E0004FFECEE7CA684968206800F051FE4021DD
:1026F0002068F4E7226801461046F0E7704770470B
:10270000F8B5016804460868CA684B6910F00F0FF5
:102710004FF000055AD003F0010602F490773743DA
:1027200065D0C10705D0D10503D5616C41F0010129
:102730006164410705D5D90703D0616C41F00201FE
:102740006164810705D5D90703D0616C41F00401AC
:102750006164010707D502F02001314303D0616CA9
:1027600041F008016164616C00293BD0800604D50A
:10277000900602D5204600F05DFE20684069616C3D
:10278000C0F3801001F00801014320462BD000F077
:102790002AFE20684069400621D52068143050E8A0
:1027A000001F21F0400140E80012002AF5D1E06B43
:1027B000A8B16D494163E06BFEF798FF002811D086
:1027C000E06B416B01B0BDE8F040084783060ED5D1
:1027D00093060CD52046BDE8F84000F02BBE2046FD
:1027E000FFF78DFFF8BDFFF78AFF6564F8BD266B24
:1027F0002023012E7CD1C6067AD5D60678D5086866
:102800004868009048694FF00206400640D5E16BE9
:10281000086840680004000CE8D0A28D8242E5D927
:10282000E085886920282DD020680C3050E8001FF2
:1028300021F4807140E80012002AF5D1216814319A
:1028400051E8000F20F0010041E80002002AF5D114
:102850002068143050E8001F21F0400140E80012C9
:10286000002AF5D184F84230256320680C3050E806
:10287000001F21F0100140E80012002AF5D1E06BA2
:10288000FEF710FF6663A08DE18D401A81B22AE049
:10289000A08DE18D401A81B2E08D0028A6D00029DC
:1028A000A4D022680C3252E8000F20F4907042E865
:1028B0000007002FF5D12068143050E8002F22F0D7
:1028C000010240E80027002FF5D184F8423025634B
:1028D00020680C3050E8002F22F0100240E800235E
:1028E000002BF5D166632046FFF708FFF8BDFFE730
:1028F00005062BD5150629D594F841002128F5D1D8
:10290000A068B0F5805F01D12069B0B1206A411C98
:102910002162216800784860E08C401E0004000CB1
:10292000E084E3D12068C16821F08001C1602068A3
:10293000C16841F04001C160D8E7206A0088C0F357
:1029400008004860206A801C2062E5E74006CDD57B
:102950005006CBD5CA68204622F04002CA6084F8EF
:10296000413000F0C6F8C1E7D733000870B5040065
:1029700004D094F84100002510B106E0012070BD9C
:1029800084F84050204600F023F8242084F84100C9
:102990002068C16821F40051C160204600F0ACFD00
:1029A0002068016921F4904101612068416921F0AA
:1029B0002A0141612068C16841F40051C160656429
:1029C000202084F8410084F842006563002070BD37
:1029D00030B585B0002400940194029403940068FB
:1029E000184988422CD11848816941F4804181619D
:1029F000816901F480410491816941F004018161A0
:102A00008069124D00F0040004904FF400700090B3
:102A1000022001900320039069462846FEF79CFFA0
:102A20002815CDE90004694628460294FEF794FF74
:102A3000002211462520FFF7CBFA2520FFF7BAFA2E
:102A400005B030BD003801400010024000080140D0
:102A500070472DE9F843044690F841009846164621
:102A60000D46202802D00220BDE8F88385B17EB152
:102A700000206064212084F84100FFF767F8A684F5
:102A80008146E684A0682027B0F5805F02D003E08D
:102A90000120E9E7206910B12E4600250EE000264E
:102AA0000CE08021204600F083FDA8B9C6B116F8DD
:102AB000010B21684860E08C401EE084E08C4B46AE
:102AC0004FF00002CDF800800028EAD14FF040011D
:102AD000204600F06DFD40B184F841700320C3E74B
:102AE00035F8020BC0F30800E3E784F841700020DA
:102AF000BAE77047FEE701684A69D24352050FD42E
:102B00006FF480624A61002140F8301F2022427336
:102B10008173026942F0040202610173012070476F
:102B200000207047F8B50446C06A1E460D46174699
:102B3000082807D0012805D010F5803F02D0206B6F
:102B4000122804D12068016841F4807101601346A5
:102B500000224FF001112046009600F073F840B1BA
:102B600020680068C00502D54FF40070206403207F
:102B7000F8BD2069B0F5804F0ED00620216800EA2C
:102B8000D51040F0F000086133463A460B49204624
:102B900000F0A0F878B902E005F0FE0000E0E8B22D
:102BA00021680861054933463A46891F204600F0EE
:102BB00091F80028DCD00120F8BD000008000100D9
:102BC00010B500F0E7FA082000F045FB00F0C4FA69
:102BD000082000F040FB00F0F1FA082000F03BFB79
:102BE00000F0C2FABDE81040082000F034BB70B518
:102BF00016460D4604461EE02046FFF77CFF08B14E
:102C0000012070BD681C16D0FEF7A0FF801BA842F3
:102C100000D885B920684069C04340070BD5002023
:102C200044F8300F20216173A073216941F0200125
:102C300021612073E4E720684069C0434007DBD48A
:102C4000002070BD2DE9F047984617460D46044612
:102C5000C1F30746DDF820902AE000BFB8F1FF3F3E
:102C600026D0FEF773FFA0EB0901414502D8B8F169
:102C7000000F1DD12068012E16D0806925EA0000C2
:102C80000004000C12D00020B84211D1002044F8FA
:102C9000300F20216173A073216941F0200121616F
:102CA00020730120BDE8F0874069E7E70120EBE7EA
:102CB0002068012E0AD0806925EA00000004000C7B
:102CC00006D00020B842C9D00020EBE74069F3E706
:102CD0000120F7E72DE9F047984616460D460446D1
:102CE0004FF000094FF0200AC1F3074723E02068A6
:102CF0004069C043400515D42068016841F4007163
:102D0000016021686FF480604861C4F8309084F8F5
:102D10003DA084F83E90216C41F00401216484F8C8
:102D20003C9021E0701C06D0FEF710FFA0EB0800DD
:102D3000B04203D816B1012F1FD021E02068012F27
:102D400015D0806925EA00000004000C18D000BFEF
:102D500044F8309F84F80DA084F80E90216941F06A
:102D60002001216184F80C900120BDE8F0874069C2
:102D700025EA00000004000CEAD12068406901E067
:102D80002068806925EA00000004000CAFD1ECE760
:102D900070B516460D4604461EE02046FFF7ABFE12
:102DA00008B1012070BD681C16D0FEF7CFFE801B55
:102DB000A84200D885B920684069C04300060BD5F9
:102DC000002044F8300F20216173A073216941F085
:102DD000200121612073E4E720684069C0430006B8
:102DE000DBD4002070BD00007FB501248020CDE938
:102DF00000040D4E0325694603953046FEF7ACFDF1
:102E0000012280213046FEF79CFE4020CDE90004DF
:102E1000694603953046FEF79FFD0122402130466A
:102E2000FEF78FFE7FBD0000000C01400D4808B585
:102E3000416941F0010141614069002200F0010057
:102E4000009011461020FFF7C3F81020FFF7B2F8EA
:102E5000002211461120FFF7BBF8BDE80840112001
:102E6000FFF7A8B80010024070B586B000241C48D7
:102E70000094019402940394816941F010018161EE
:102E8000816901F010010491816941F020018161A3
:102E9000816901F020010491816941F0080181619B
:102EA000816901F008010491816941F004018161A7
:102EB0008069012200F004000A4E5503049029465F
:102EC0003046FEF73EFE01200095CDE901040220C8
:102ED000039069463046FEF73FFD06B070BD000026
:102EE00000100240001001400D4810B50B49016070
:102EF0000C49416000214FF480428160C0E9031217
:102F000041618161C1610162FEF726FE002803D0A4
:102F1000BDE81040FEF7C4BB10BD000000540040E7
:102F200018000020A08601000D4810B50B49016073
:102F30000C49416000214FF480428160C0E90312D6
:102F400041618161C1610162FEF706FE002803D084
:102F5000BDE81040FEF7A4BB10BD000000580040C3
:102F60006C000020A086010010B586B00024174830
:102F7000009401940294039404941349059401600D
:102F80004721C0E901144FF6FF71C0E90314446101
:102F90008461FFF703FB08B1FEF782FB4FF480501A
:102FA000009069460948FFF73BFB08B1FEF778FB44
:102FB000049404A905480594FFF7BCFA002801D041
:102FC000FEF76EFB06B010BD002C0140480100204A
:102FD0000C4810B50A4901604FF4E131416000210D
:102FE00081600C22C160C0E904128161C161FFF7F8
:102FF000BDFC002803D0BDE81040FEF751BB10BD5A
:103000000038014090010020FEE7FEE7F0B5A7B0D0
:1030100002A800F089FC02A800F0A0FC374902A831
:1030200000F0E1FD102436482346CDE9004000229F
:10303000214602A800F090FD314D102320350022DA
:10304000202102A8CDE9004500F086FD2DA3102225
:10305000302102A800F070FD05F12000CDE900400C
:1030600010232022194602A800F076FD202210230A
:10307000114602A8CDE9004500F06EFD302221A3E3
:10308000114602A800F058FD4035102300223A21D5
:1030900002A8CDE9004500F05FFD05F12006CDE96D
:1030A0000046102300224A2102A800F055FD05F138
:1030B0004007CDE90047102300225A2102A800F062
:1030C0004BFD102320223A2102A8CDE9004500F053
:1030D00043FDCDE90046102320224A2102A800F03A
:1030E0003BFDCDE90047102320225A2102A800F021
:1030F00033FD02A800F06EFD27B0F0BD004D0008C2
:10310000164C00083A0000007047000070B500241B
:1031100000F02AF800F030F8082000F09CF800F0E9
:103120001BF8082000F097F80A4D01E0641CA4B2D7
:1031300080212846FEF700FD08B1642CF6D3642CEC
:1031400006D000F011F8082000F085F8012070BDCD
:10315000002070BD000C0140012240210148FEF713
:10316000F0BC0000000C0140002240210148FEF7A5
:10317000E8BC0000000C01401FB500200190802039
:1031800000900320039069460148FEF7E5FB1FBD50
:10319000000C01401FB50120019080200090032009
:1031A000054C039069462046FEF7D6FB012280219C
:1031B0002046FEF7C6FC1FBD000C01401FB50120D4
:1031C0000190802000900320054C03906946204622
:1031D000FEF7C2FB002280212046FEF7B2FC1FBD95
:1031E000000C0140704710B5FFF7BEFF082000F04B
:1031F00032F8FFF7E3FF082000F02DF8FFF7ACFFEF
:10320000082000F028F8FFF7AFFF082000F023F8AF
:10321000FFF7B2FFBDE81040082000F01CB810B561
:10322000FFF7A2FF082000F016F8FFF7B3FF082011
:1032300000F011F8FFF790FF082000F00CF8FFF7FE
:1032400093FF082000F007F8FFF7B8FFBDE8104033
:103250000820AFF3008000B5801E020004D00120DA
:10326000FEF71BFA521EFAD100BD10B5FFF7A6FFFC
:103270000820FFF7F0FFFFF76FFF0820FFF7EBFFD5
:10328000FFF788FFBDE810400820FFF7E4BFFEF716
:1032900039BE30B58FB028216846FDF7BDF814213E
:1032A0000AA8FDF7B9F801210804CDE900100024AF
:1032B000029402250491CDE907504FF4E0100990E3
:1032C0006846FEF793FF08B172B6FEE70F20CDE91E
:1032D0000A054FF48060CDE90C4002210AA80E9443
:1032E000FEF7A8FE002801D072B6FEE70FB030BD91
:1032F00070470000F0B50268194B1A4C1A4D4FF098
:103300008047984205D0B84203D0A04201D0A842DD
:1033100003D122F070064A683243984205D0B84281
:1033200003D0A04201D0A84203D122F44074CA685D
:1033300022434C6922F08002224302608A68C26202
:103340000A688262984201D10969016301214161E1
:103350000169C90703D0016921F001010161F0BDD4
:10336000002C0140000400400008004010B58468B3
:1033700042EA032224F47F440A432243826010BDC0
:10338000826822F070020A4342F0070181607047B0
:1033900010B5036A046A24F001040462846924F00D
:1033A000F00444EA021423F00A020A438461026230
:1033B00010BD10B5036A046A24F010040462846925
:1033C00023F0A00324F4704444EA023243EA0111DA
:1033D0008261016210BD10B5406A0021C185C184BF
:1033E000FFF78DF910BD01680C3151E8002F22F470
:1033F000907241E80023002BF5D10168143151E8A7
:10340000002F22F0010241E80023002BF5D1016BCF
:10341000012909D101680C3151E8002F22F0100276
:1034200041E80023002BF5D1202180F84210002133
:103430000163704708B590F84210222901D002209C
:1034400008BD82684FF480539A4201D1016921B1CD
:10345000816A9A421BD04AB10AE00268816A5268C6
:10346000C2F308020A80816A891C08E0026972B10D
:103470000268526802F07F020A70816A491C816208
:10348000C18D491E0904090CC18503D01BE00268E7
:103490005268F1E70168CA6822F02002CA60016838
:1034A000CA6822F48072CA6001684A6922F0010287
:1034B0004A61202180F8421000214163026B012AF9
:1034C00003D0FFF7C5FA002008BD016301680C3185
:1034D00051E8002F22F0100241E80023002BF5D123
:1034E00001680A68D20602D50A6849680091818D90
:1034F000FFF704F9E7E7000070B5044600680169CA
:10350000E26821F44051114301612169A068084338
:10351000616908432168CA6841F20C639A43024317
:10352000CA6020684169A26921F440711143416178
:103530001E492068884202D1FEF722FE01E0FEF714
:103540000FFE00EBC00101EB0012606864218000F7
:10355000B2FBF0F3B3FBF1F36FF018067343B2FB69
:10356000F0F5B2FBF0F605EB8305322303EB05150E
:10357000B5FBF1F5B6FBF1F605F0F00505EB061528
:10358000B2FBF0F6B2FBF0F0B0FBF1F06FF0180216
:10359000504306EB800003EB0010B0FBF1F0216814
:1035A00000F00F002844886070BD00000038014022
:1035B0002DE9F843984617460D460446089E24E038
:1035C000701C22D0FEF7C2FAA0EB0800B0421AD855
:1035D000CEB12068C168490717D5802D15D0402D80
:1035E00013D00168C94309070FD40168002540685A
:1035F00000902046FFF7F7FE0820606484F84050F2
:103600000120BDE8F8830320FBE72068006835EA65
:10361000000004D00020B842D2D00020F1E7012001
:10362000F9E700000148FFF76BB8000090010020A7
:10363000FEE7490050EAC12018BF04204A0D18BF18
:1036400040F0010040F2FF72B2EB515F08BF40F062
:103650000200012808BF052070470907090E00284D
:1036600004DB00F1E02080F80014704700F00F0048
:1036700000F1E02080F8141D704730380A2801D28C
:103680000120704700207047AEB0002002904FF438
:10369000FA7403902046FDF7D4FFFEF73BFCFFF7DA
:1036A000F8FDFFF7E1FBFFF7C1FBFFF71DFCFFF79C
:1036B0003BFCFFF78DFCFFF757FCFDF787FE20462C
:1036C000FDF7BFFF04A800F02FF9FFF79FFCDFF81C
:1036D000F49067424FF40058660000224146484685
:1036E000FEF72FFA02A8FDF7DDFE02984FF47A717B
:1036F0004843000D019003984900484307EB1050E0
:103700000090019900F07EF82FA000F0FDF8002451
:103710006420FEF70FF92FA000F0F6F8641C0A2CC5
:10372000F6DB2DA000F0F0F83046FEF703F9009824
:103730000A2490FBF4F104FB11000099642591FB2D
:10374000F4F191FBF4F204FB12130099009091FB49
:10375000F5F222A129A8FCF747FD29A800F0D4F82A
:10376000019890FBF4F104FB11000199009091FB8A
:10377000F4F191FBF4F204FB1213019929A891FBD7
:10378000F5F21AA1FCF730FD29A800F0BDF812A04F
:1037900000F0BAF819A000F0B7F800246420FEF792
:1037A000C9F80CA000F0B0F8641C0A2CF6DB0AA0E3
:1037B00000F0AAF83046FEF7BDF807A000F0A4F824
:1037C0008BE7000000100140D5FDD4DABCECB2E27A
:1037D000000000002E0000000D0A0000CEC2B6C896
:1037E0003A256425642E256400000000CAAAB6C8E4
:1037F0003A256425642E256400000000B5C8B4FD98
:10380000000000002DE9F041ACB00C4601F096F943
:1038100006460F46204601F091F9DFF8D4800446B1
:103820000D46002243463046394601F02FF8024645
:103830000B4630A127A8FCF7D7FC002243462046C0
:10384000294601F023F802460B462AA129A8FCF7D5
:10385000CBFC02A800F068F802A800F07FF8274926
:1038600002A800F0C0F9102425482346CDE9004005
:103870000022214602A800F06FF9214D10232035C7
:103880000022202102A8CDE9004500F065F91DA322
:103890001022302102A800F04FF905F12000CDE9F7
:1038A000004010232022194602A800F055F92022DA
:1038B0001023114602A8CDE9004500F04DF9302251
:1038C00010A3114602A800F037F927AB10223721C8
:1038D00002A800F039F929AB3022372102A800F004
:1038E00033F902A800F076F92CB0BDE8F0810000B1
:1038F00000002440252E326600000000004D000824
:10390000164C00083A00000010B50446FCF743FDD1
:10391000214682B2BDE810404FF0FF330148FFF767
:1039200098B800009001002010B50446084B094AE1
:10393000094900F0A1F9204600F0EBFC00212046E7
:1039400000F0F7FC2046BDE8104000F007B800008A
:103950002D470008D5430008185C000801680A7C60
:1039600090F83810406B5143C900FCF733BD2DE986
:10397000F041044690F870001F4615460E4630B1DF
:10398000012809D002280CD0032815D10FE0E16DE1
:1039900020468847284408E0E16D20468847301AD1
:1039A00009E0E16D20468847281A85B204E0E16D00
:1039B00020468847304486B22846A4F86460A4F8BC
:1039C000660039460025204600F04CFB010003D07C
:1039D000204600F077FA85B22846BDE8F081000065
:1039E0003FB581B0044690F88C00089900283AD081
:1039F000BDF81000002836D0012811D9022902D0C4
:103A0000032907D00CE0BDF80820101A401CADF8BF
:103A1000080005E0BDF80C20101A401CADF80C00A1
:103A200011F0010521D0B4F84810BDF8080081421A
:103A300019D8B4F84A10814215D9B4F84E30B4F808
:103A40004C2004A90DF10C0000F0AEF900280AD0BA
:103A50000095206BBDF81030BDF80C208568BDF8CE
:103A600008102046A84705B030BDB4F84C10BDF88A
:103A70000C008142F7D8B4F84E108142F3D9B4F863
:103A80004A30B4F8482004A902A8DDE72DE9FF4F29
:103A900081B090F89270DDF838801D460E46814660
:103AA0008FB1002082460398039A401C80B2009098
:103AB000701983B2484600F075F8002839D0012407
:103AC0004FF0000B31E00120ECE700BF98F8000058
:103AD000204000230CE05B1C761C61009BB2B6B258
:103AE00011F0FF0402D1012408F101086D1EADB2EE
:103AF00055B198F8001001EA040110B10029EAD18B
:103B000003E00029E7D003E010B189F8927004E0E7
:103B100099F8910048B989F892A0F01A81B2CDF8CD
:103B200000B04846039AFFF75BFF002DCED189F81D
:103B3000927005B0BDE8F08F30B4024C446030BCE8
:103B400000F05FB99943000830B4024C446030BCC7
:103B500000F057B9CF4700082DE9F84F8246DDE95C
:103B60000A57D81DC0F3CC08501980B21C460090EB
:103B7000081983B216468946504600F013F800280B
:103B80000ED00BE023463246494650460097FFF7D9
:103B90007DFF761C6D1E4744B6B2ADB2002DF1D14B
:103BA000BDE8F88F70B50D461E460446B0F84E10BD
:103BB000B0F84C00049B00F0B2FA002809D0B4F829
:103BC0004A10B4F8480033462A46BDE8704000F079
:103BD000A6BA70BD10B5044600F02FFB2046BDE824
:103BE000104000F09EBB10B50446806D884209D09D
:103BF00004F17400A16500F0EBFA2046BDE8104026
:103C000000F056B810BD00000149C16570470000C2
:103C1000793E00080021A0F85010A0F854104FF68B
:103C2000FF71A0F85210A0F85610016B49680847C0
:103C300070B5044600250498A565E362616384F8C5
:103C4000382084F8395084F86D5084F8915084F805
:103C50008D50012184F8921084F89310206301683C
:103C6000204688472046FFF7D5FF2046FFF7CCFFC8
:103C700084F8705070BD00007CB50C46009313466C
:103C80000546084A084900F05CFB01A800F09AFAD2
:103C90000146064B00949DF804202846FFF7C8FF14
:103CA0007CBD0000FD44000825460008374100089F
:103CB00010B5816D00291AD090F9813080F88E30CE
:103CC00090F9822080F88F2090F88D1000290ED076
:103CD00001290DD090F97E4090F980100C449C424F
:103CE00001DD80F88E408A4201DD80F88F1010BD22
:103CF00090F983108B4201DA80F88E1090F98410CD
:103D0000F1E72BB1012B05D0022B06D0104402E0C5
:103D1000084400E0801A80B27047401AFBE72BB1DC
:103D2000012B05D0022B06D0401A02E0104400E01F
:103D3000084480B27047801AFBE738B50446B0F8F3
:103D400056000090B4F85230B4F85420B4F8501033
:103D50002046FFF727FF18B3012084F88C00B4F841
:103D60004810B4F85000814201D2A4F84800B4F8D9
:103D70004A10B4F85200814201D9A4F84A00B4F8BC
:103D80004C10B4F85400814201D2A4F84C00B4F8AD
:103D90004E10B4F85600814201D9A4F84E0038BD47
:103DA000002084F88C0038BD30B504880D88254487
:103DB000ADB2AC4205D99C4202D25D1EADB200E06C
:103DC00014469C4201D2954201D8002030BD944255
:103DD00000D214469D4200D91D460480281B08804D
:103DE000012030BD38B5C58F049C0094521BC46AB5
:103DF00092B2A04738BD38B5049C0094FFF7F2FF9B
:103E000038BD2DE9F0471C4691468846064600F02D
:103E1000DAFC00254FF6FF7772682178304690472C
:103E20000346B84225D0641CA3F57F40FE38F3D08A
:103E30004A4641463046FFF79AFD96F8701031B178
:103E4000012907D0022908D003290FD10AE008EB85
:103E5000000104E009EB000106E0A8EB00011FFAF5
:103E600081F803E0A9EB00011FFA81F9284485B22B
:103E7000D2E72846BDE8F0870020704710B50C4611
:103E800000F006F80122641EA240801A40B210BD64
:103E900030B50568047B2A78E2406318DBB2082B52
:103EA00009D36D1C05602D78C4F10804A5401543A5
:103EB000083BEAB2DBB201248C40641E1440037359
:103EC000204630BD2DE9F843054600F1600400F0BE
:103ED0000CF915F96B6F2046E97BFFF7CFFF8146A0
:103EE000297C2046FFF7CAFF0746697C20466B3DC8
:103EF000FFF7C4FF804694F90A00002857DDF01947
:103F0000404247B2237CA0883A464946FFF7F9FE73
:103F1000A080237C3A46E0884946FFF700FFE08016
:103F2000A188277C02460B4637B1012F0AD0022F09
:103F300040D0032F0FD146E094F90A7030443B443F
:103F40009BB207E0891B491C94F90A705B1C89B27B
:103F50009BB2384480B200902846FFF723FE30B36E
:103F60000020207284F8090095F876102046FFF7AB
:103F70008FFF814695F877102046FFF789FF0746A7
:103F800000224946284600F027F8012239462846F3
:103F900000F022F801212046FFF77AFF0028EFD138
:103FA00094F90900B042DFDBA07B85F8920040461F
:103FB000BDE8F88394F90A705B1CC91B491C89B2DF
:103FC0009BB2921B04E094F90A7033449BB2D21B5B
:103FD000521C92B2401CBDE72DE9F74F84B00D464C
:103FE000049C94F8687094F869806034A07AC01BCF
:103FF000C6B20196B54200D201954FFA88F279B265
:10400000A088B4F806B0237C92468946FFF779FE73
:104010000290237C524649465846FFF780FE0246EE
:10402000069808B1A17B02E0607B50B9E17B04985F
:1040300080F89210207C0090DDE901310498FFF7B0
:10404000CFFCB54207D3A81BC5B208F10100002779
:1040500000F0FF08CAE77819207284F8098007B0D9
:10406000BDE8F08F70B50D460146806D1730FF2D0D
:1040700010D8612D02D3B1F8881003E0412D02D38E
:10408000B1F886100844417819B30278AA42F9D1F0
:10409000801C70BDB1F88A100C18264600213046ED
:1040A00000F019F804440221304600F014F8361DDF
:1040B000A842F3D34FF6FF72207802EA002160781D
:1040C000084306D0A84201D1E01C70BDA07804448A
:1040D000F2E7002070BD08444FF6FF720178407887
:1040E00002EA0121084480B2704730B5054600F16C
:1040F000600401660020207315F8781F2046FFF742
:10410000C7FEA07269782046FFF7C2FEE072A87E63
:10411000A07310B10020E07330BD0120FBE78A429C
:1041200005D2834201D89A4203D9012070478342C5
:10413000F9D800207047F0B502F007060124B4401A
:10414000002590F892E0E7B2DDF814C02C46BEF1ED
:10415000010F01D83D4600D03C46076822F0070217
:10416000BCF1000F3F7C07FB02F7BAB2476B3A4441
:10417000114409D108785B1E284360401B0401F8F4
:10418000010B1B0CF6D1F0BD0A78761C2A43624065
:10419000A3F101030A7016F007069BB206D06A0667
:1041A000150E6206140E002BEED1F0BD428F1144A5
:1041B00090F89220012A02D84FF00105F3D04FF079
:1041C0000104F0E70821017000487047D801002081
:1041D00070B5054608782870487868708878A870A7
:1041E000C878E870087928714879687188790C4630
:1041F000A871E079E871207A2872607A6872A07AF2
:10420000A872E07AE872207B2873607B6873A07BD9
:10421000A873E07BE873207C287411212046FFF707
:104220005AFF688213212046FFF755FFA882152107
:104230002046FFF750FFE88270BD2DE9F84306469F
:1042400090F8387090F83950006800244FF6FF78E5
:1042500090F81190316830462A460B7C716B04FB54
:1042600003FC1FFA8CFC08EACC0C6144009100218D
:1042700000F040F8641C6D1CE4B2EDB2BC4201D207
:104280004D45E7D3BDE8F883F0B590F838204FF6F8
:10429000FF75036805EAC2018187197C05EAC1013F
:1042A000418790F8394005EAC401C1875E7CA718B0
:1042B000B74201D9321B92B205EAC20220F8401F70
:1042C00011444180998A8180D98AC180F0BDFFF76D
:1042D000DBBF0021A0F84810B0F84410A0F84A1045
:1042E000B0F84010A0F84C10B0F84210A0F84E10F2
:1042F000FFF723BD1CB58DF805108DF80620049C32
:104300008DF804300094012284686B460F21A04789
:104310001CBD30B484680023A44630BC1A460A2170
:10432000604730B484680023A44630BC1A4610218C
:10433000604730B484680023A4460A4630BC0B2191
:1043400060472DE9F04115460E460446069F00F0F1
:1043500009F86761A660C4E903532046BDE8F0414F
:1043600000F012B8002140F8081B064A02604260C3
:104370008260C260C17681770161FF21017780F898
:10438000201070472947000830B484680023A446F1
:1043900030BC1A4609216047080001D00A2801D123
:1043A0004FF6FF70704730B404690023A44630BC58
:1043B0001A461921604713B50122046901AB172180
:1043C000A0471CBD30B404690023A44630BC1A4683
:1043D0001821604738B5184818290DD004DC142975
:1043E00007D0172923D10AE0192916D020291ED178
:1043F0001FE0FEF799FD1CE00021017019E00F4C51
:1044000008E000BF017813F8015B6554491C521E97
:104410000170D2B2002AF5D10BE04FF47A7100910D
:104420000378064A78210648FDF75AFC08B10020B7
:1044300038BD012038BD000016000020D80500203E
:104440006C00002030B4C4680023A44630BC1A4677
:104450001921604730B4C4680023A4460A4630BC22
:104460001621604730B4C4680023A4460A4630BC15
:104470001521604730B4C4681346A4460A4630BCD0
:1044800017216047F8B50C464FEA000514F8011BE8
:10449000182924D00EDC152919D0162917D0172970
:1044A00023D120788DF800006A4601212846FFF7C5
:1044B000E1FF0AE0192912D0FE2916D122788DF8E1
:1044C00000202921284600F062F9641CDEE72278EA
:1044D0008DF80020EE6800232846B047F5E700235A
:1044E000EE681A462846B047D0E7F8BD30B4C46835
:1044F0000023A44630BC1A46182160472DE9F0413C
:10450000DFF8B08014460646A1F11402002798F89F
:1045100000001D46062A4AD2DFE802F02F03161BD0
:104520003E4310B13046FFF73EFF3046FFF74AFFEB
:1045300000213046FFF73FFF21463046FFF73BFFA3
:10454000012088F8000029E021463046FFF733FFBC
:1045500024E050B13046FFF726FF06E01821304630
:1045600000F01BF9183CE4B21835182C2A46F5D88F
:104570002146304600F011F90EE096F82400FF289D
:1045800002D1782086F8240037692B46224630462F
:10459000BC46BDE8F041604788F800700120BDE8E6
:1045A000F0810028F8D03046FFF7FDFEF4E7002048
:1045B000F5E700001000002070B5002345690446AF
:1045C0001A462821A8470023E5681A4614212046E8
:1045D000A84701224B21204600F0D9F82068292164
:1045E0000279204600F0D3F800224B21204600F04B
:1045F000CEF8206829210279204600F0C8F801226F
:104600004B21204600F0C3F820682921427920463A
:10461000BDE8704000F0BBB80160897C80F82210D2
:104620007047000070B50C46054600F019F888B9CF
:10463000092C0BD00A2C01D0002070BD2846FFF7B2
:10464000BBFF05492846FFF71DFF03E00349284645
:10465000FFF7E2FF012070BD4A5C00084C5D0008D6
:104660002DE9F0411E46144605460B2908D00D29B8
:104670000ED00E291ED00F2927D00020BDE8F081D2
:104680001AB12849FFF7FEFE4AE02649491FF9E71B
:104690004AB124490C31FFF7F5FE286890F8130061
:1046A00085F822003CE01F49491DFFF7EBFE286812
:1046B000807CF5E7FFF71AFF81212846FFF7D2FE3D
:1046C00021462846FFF7C6FE27E0FFF70FFF707967
:1046D00095F8221001EBC000C7B240212846FFF731
:1046E000C1FE102040EA17112846FFF7BBFE07F075
:1046F0000F012846FFF7AEFEB07940F0B001284622
:10470000FFF7A8FE30793268C006010E2846FFF791
:10471000B1FE641E14F0FF04F4D12846FFF792FEA8
:104720000120ABE7295C00080020704710B54D2937
:1047300019D00CDC2B2918D004DC292920D02A29F7
:104740000ED114E02D290ED04C2909D10BE0002206
:10475000502919D0512917D0522915D0532913D0D7
:10476000012180F82710012010BD00BFFBE70020C9
:104770004FF4A07100BF401C80B28842FAD3F2E728
:104780000120FDF7D7F8EEE780F82720EBE730B4FB
:1047900044690023A44630BC60472DE9F04115462A
:1047A0000E460446FFF70EFE40212046FFF703FEAB
:1047B00027692B46324617212046B8472046BDE8D8
:1047C000F041FFF7F0BD002180F82610704730B5AA
:1047D0004FF6FF72A9B30A293FD090F82630541E35
:1047E0007BB15B1E13F0FF0380F82630058C01F0CF
:1047F0003F0102EA851242EA010202842DD02046DE
:1048000030BDFC2905D3052280F8262001F00101E6
:104810001FE0F82905D3042280F8262001F00301C7
:1048200017E0F02905D3032280F8262001F00701C4
:104830000FE0E02906D3022280F8262001F00F01C4
:1048400007E00AE0C02906D3012280F8262001F003
:104850001F010184D3E7084630BD104630BD00007B
:1048600010B500290AD00878002807D005487844F8
:10487000FCF7AAF9002801D0002010BD02487844B6
:1048800010BD0000C2150000BA1500002DE9C0419E
:1048900030B4DFF8A0C23CEA111418BF3CEA13148C
:1048A00000F0EC8081EA03051CEA111444EAD57497
:1048B00018BF1CEA131500F0C780A4EB05044FF0E5
:1048C000004545EAC12145EAC32341EA505143EA84
:1048D000525304F17F74994204F500344FEAC0202A
:1048E0004FEAC22208BF904200F09C804FEA136555
:1048F0000FF24016765D4FEA134506FB05F7C7F148
:10490000807706FB07F74FEAD737A7FB03687642A5
:10491000C8F58038A7FB06CE38BFA8F1010807FB11
:1049200008E64FF0000EA6FB028CE6FB03CEDCF19E
:10493000000CCEF1004E38BFAEF1010EA6FB0C58B4
:104940004FF000074FF00005E6FB0E87A1FB08C6FD
:10495000A0FB07CE16EB0E0645F10005E1FB07654F
:1049600015F1E04E7EBFA4F580345FEA46066D4146
:1049700016F1800745F100054FEA17274FEA066652
:1049800047EA0567A6F1DE46B6F1805F4FEA1525D6
:104990001FD9384624F0010C05EBC471BCF1FE6F41
:1049A00001EB0C1102D8F0BCBDE8008124425CBFD1
:1049B00001F5801E9EEAC47F02D4F0BCBDE80081F0
:1049C000244238D4F0BCA1F1C041BDE8004100F060
:1049D0001AB94FEAD22242EA43524FEAD323A7FB45
:1049E00002864FEAD02040EA415007FB03661EEAE8
:1049F0000E0F4FEAD12105FB026658BFA6EB005609
:104A0000B6EB00564FEA520E4EEAC37E18EB0E0E7E
:104A100056EB530EBDD518EB02085E417F1C55F1D5
:104A20000005B6E74FF480154FF000074FF0000681
:104A30004FF00008ADE7F0BC4FF0000001F1C041BD
:104A400001F00041BDE8008111EA0C1F0CEA1315CA
:104A500000D00CE013EA0C1F00F025804FF000009E
:104A6000F0BC81EA030101F00041BDE80081F0BC27
:104A7000BDE8004181EA030100F0C5B8F0BCBDE823
:104A8000004170B500F071F8097EFC3E00F007B8F7
:104A900081EA03014FF0000001F00041704781EA14
:104AA000030100F0B0B8F0BCBDE800414FF00000D9
:104AB00021497047FFFDFBF9F7F5F4F2F0EEEDEB5D
:104AC000E9E8E6E4E3E1E0DEDDDBDAD8D7D5D4D30C
:104AD000D1D0CFCDCCCBCAC8C7C6C5C4C2C1C0BF58
:104AE000BEBDBCBBBAB9B8B7B6B5B4B3B2B1B0AF5E
:104AF000AEADACABAAA9A8A8A7A6A5A4A3A3A2A142
:104B0000A09F9F9E9D9C9C9B9A99999897979695FC
:104B100095949393929191908F8F8E8E8D8C8C8B98
:104B20008B8A898988888787868585848483838220
:104B3000828181800000FF070000F87F10F00042B2
:104B400048BF4042B0FA80F310FA03F10AD0C3F133
:104B50001D0303F580634FEA415002EB035202EB61
:104B6000D12170474FF0000070470EF1020E2EF079
:104B7000030E5EF8046B364205D4012A43EB0305AD
:104B800015F5001F12D8012841EB010C1CF5001F80
:104B90000CD80ED14FEAD17C15F5001F0CEB4C0C54
:104BA0000CF1020C08BF4CEBD37C04E04FF0080C76
:104BB00001E04FEAD37C0CEB4C0526FA05F606F033
:104BC0000706B6F1040C06D20EEB860CBDE8704069
:104BD0004CF0010C6047DFE80CF0090B02024FF0CB
:104BE00000414FF00000A1F5002170BD19461046AC
:104BF000012851EB010418BFD4F5001484BF002034
:104C000001F0004170BD0808A0F500114FEA310124
:104C10007047FBF75BBD0000C41F48104810C11F60
:104C200042104210C81F0800E43F272524252425F0
:104C30002425F47F000080000001FC7F440444042C
:104C4000FC3F44044404C4070400F40F2408420455
:104C50008203610C1C700000E41F28102810E11F63
:104C600022102210E81F880484049724A414C40C82
:104C70008404F47F0000100210020802C43F1202F4
:104C80001002E87F0C080A08E97F0808480888082D
:104C90008808080A08040802080208050805BF0871
:104CA0004810AC6F1C002A110A124912880A8808A1
:104CB0000804E87F08000020E4232822282AA12AEB
:104CC000A22AA22AA82AA82AA42AA72A8420442100
:104CD00044222428101001020203040506070809D3
:104CE0000A0B0C0D0E0F1010000000000000000059
:104CF0000102030406070809000000000102030482
:104D0000BF00030305050405061213FEFD0CFD0C90
:104D1000FE023104F90EFA200600642401210D83FD
:104D2000252C13395442D1882502220CA5E03521C7
:104D3000611945421100231A8A215427128A8422BC
:104D4000D1417210298A4407C941A428128A6400FB
:104D5000241DE9E1531987846B9250441429A51846
:104D60008F9650A8122285249288AC1C0425258C8D
:104D70002574350B4E88A2485016098A22515124B9
:104D8000329A4426D1882818910523A26048148CB1
:104D90008D00261A8C25744917894562519C8922F9
:104DA00019494693908CB654B29426002708A2E481
:104DB00025718900280EC4A533170AA988F4269204
:104DC0000503290FC4A133118C896422BD8844696D
:104DD000002A11E76045178CA44822A2912422C919
:104DE00018032B0D08255427563B1C646235002CF4
:104DF0000CC4602B23A18C429218002D0744E02C98
:104E000071082E0964202C23A148002F0F85212C26
:104E100099164C0BC68269C1200030148921543781
:104E200095C894649299B7894C245391CE00310A65
:104E3000872554272AEE9F0E3213882554458B4927
:104E400046A6496C38D516111E0E03331589215418
:104E500055132DC9626269793E919D26A2590900B8
:104E600034148921541D174F89916164161AC5465F
:104E700007E1787835138825547331C5E3B5D078C8
:104E80001233994AA31200361689215457134D4400
:104E90001499643C1951D66C13D964910437128863
:104EA0002554F110094A82926058552C5D0E023843
:104EB0001588255445134946A68948461349464E48
:104EC00013918C043917892154459CAC4966B6C9A5
:104ED0008434194F6412926424AB013A0D04212CDE
:104EE00023A1C861128A04003B0F64612B23A1C86F
:104EF0006112CA282489013C0B0865542D24319283
:104F000099053D0BC86454F120473A1C043E0B0838
:104F1000655421E6486214033F148821444513492F
:104F20002813D1702A8DA384A7E32000401CACE194
:104F300063599D8DE4A19824429288F42F14C924CA
:104F40001492C5E4A2D9B406411B8D216C2B07CE67
:104F50006173101D14994BE6B1E9212A9B4667D273
:104F600011CD00421A8C216C7118CE1647C3D16C3A
:104F70007608CE1647C3D170349B1C460043198B6C
:104F8000256C5909CD2653C9984E87CC21F3C838D2
:104F9000328DCDA43400441A8D21747110CF866BEC
:104FA000C3D974341D4D47D3D170369C2D1D840058
:104FB00045198B216471200D4543D1286922B54ED6
:104FC000A4A3A46968281A1E0C46198B21647120B9
:104FD0000D4543D1286922B54EA4A3E81C32878C25
:104FE0008F00471A8D25745909CE5665E3D03C349D
:104FF00087CD0ED3D970365C22934200480F8E21A4
:105000007C71310DF7E361B8FF7431490A87213CA7
:10501000711AEE9F0E4A128A215C779DEF261A5173
:10502000464BC1916858044B1A8E216C71A90DA58D
:1050300033F1483E9143EEF70979449D1187948BF3
:10504000014C198B2164719E43E69039640E99439B
:10505000E69069681A1A8A8607034D2590218461B3
:10506000341189911931328A0C23A3C83034890C48
:1050700043A46188348C8D8631D9306D540A194E21
:105080001D8E2174412D8D83D4603185160C918243
:10509000314A30588C12C3C3B8A81C024F168C2555
:1050A00074491ECD86A3E164EC79321C0D67A331EF
:1050B000110050198C216C7118CE1647C3D1703471
:1050C0009B1D8273D01C3407CDAF00511DEC65735E
:1050D000491ECD86A3E164EC493491842222B6D1E5
:1050E000B80E9BC4EB900900521B8D21747198CEB1
:1050F000866BC3D9E2213A128FA6B3E16C129A1DD6
:10510000681300531489255C5549AC926D11A32591
:1051100066A6162391120054198B21647130ADCD0F
:1051200064B3E01C3287CC2173C81C32878C4F00DB
:10513000551B8E2174712A8D83E3E038380E8E83DF
:10514000E3E038388E0EC32439840A561B8D1D6C5B
:1051500071224D65C4E8303A8B8FE29338A40EA2D9
:1051600083E64039500A57228F2184516199E9160C
:105170001C8D82A3897042094B229230853C9A4350
:105180006472884C0E910901581A8C216451AA4C02
:1051900065C3E8285C87D021744839440CCEA493B9
:1051A0005201591C8D1D6471290DA5B3F0280E996B
:1051B000C42174D81C3687CD6173D81C72035A146D
:1051C00089255C71201227C1E9F27416194666B56B
:1051D00043015B09C4A53361D2FF445C10872554A9
:1051E00021154BC552B1542C154B055D09C4A53B87
:1051F00041D2FF645E0DE864552796D2445A844438
:10520000015F0748A043F1206008646036219A09D5
:105210006111092154635A910D4BA2C96832214D85
:1052200008621B8B1D5C5187CC2173C81CB2489946
:105230002DCD46B3D16C449945222300630E08213D
:105240004C551A95AC6B92898C04641A8B215C4B7B
:1052500087CC2173C870329B9066A3D968369AAD0B
:10526000102791016510092154559BAC1D0EE1A139
:1052700064242B016610891D3C49948C26B2E1718F
:10528000BCC7130067128961532FBA6CB35D4645E2
:10529000F9E5403C500068198B1D5C4187CC2173B7
:1052A000C81C32A19146A4B5D16C341BCD260D6922
:1052B0000B8521342322C949FB526A10E659332752
:1052C000A3C921B57DAB544423006B178B215C41EE
:1052D00087CC2173C81C3229AD4D86D6E368B6D27F
:1052E000006C0985213441DA7F296D100F2184413A
:1052F00019CD2894D1FE7FA94C0A6E120B1D5C417A
:10530000A191D646B3D16C341BCD260D6F0F0A2167
:105310005C471C4D861E27A3210D0070176A5D5B3C
:1053200041995146B3C96C329BCC2694D164361F47
:10533000570171136A5D535509ADCC26B3C96C3260
:105340001BADDD970B720E09214C4119519644E3B8
:10535000AD4500730D0721444399D54EB7DA840259
:10536000740F66213C170D8A2CB35D22A5090075C8
:10537000140B1D5C4122CD46B3D16C341BCD4614B9
:105380005A650076130A215451A1CC4423E14438D4
:105390000993E710210077170F217C516199A98D9E
:1053A00046C109454A2153E83239442604780F0999
:1053B000215451598B55C7D35A6C322979166A5DDD
:1053C0005351A1CC6423D9285A9ECF21524974123B
:1053D0009E027A0F07214C71104942B3A170443AE2
:1053E000087B0DC4A5332511E92213E94D007C0883
:1053F000823154F161007D0DC4A1332113E92611DE
:10540000E945047E0C68E454338A1C22A10900A0FB
:105410000600642401A10D83652B13B1444391431D
:105420002502A21488A1531F8E95462597D82414CF
:1054300019C588E13000A316892154571B494693AA
:10544000D164161B5EE5529AC4241901A41508A55F
:10545000541391440E11914448948824874844126F
:1054600001A5158A215451A1CCD48213A9244C350D
:105470008BCD7288D804A60982315471181E06A7F4
:1054800018E6654B350A494212A98C121BCE22340C
:10549000A9441411854600A80845603621A108A931
:1054A0001C8C2164671DCDC4125185220A8DC42233
:1054B000F1442421912462D9686A03AA0EE660357A
:1054C000330A89284A12710500AB0CA6A444952220
:1054D000A18824A204AC09A8A054F120D600AD07ED
:1054E00044E02C7108AE1C8C2164671DCDC41249A8
:1054F0008994341BCA22B25148429954C4B2D1D4BF
:1055000006AF0625A03651B00CA5E43D3391CC265C
:10551000920900B10F28255427961D0E32B11C7830
:105520003808B20CE5603533095164690701B30FDF
:10553000E660354311494232518824A100B4086421
:105540006436252901B5196B615B4122CD46B3D183
:105550006C341BCD46149264450E9A43E600B61B8C
:105560008B216473388444255149549291A422A913
:10557000482A928AA422D96100B70964E02C23A1A9
:105580004800B80984603313935500B909E46435C1
:105590001519E942BA0BE560353391B048C605BB31
:1055A0000EA6A444110A4944128A241402BC1B8C7E
:1055B0002574150E4D6542C5A84C2A4BA188A4A29E
:1055C0006928516292CAA204BD1C8C2574150E4D27
:1055D0006542C5A84C2A8B4C2823A144311A1406D5
:1055E00085A46001BE1E8D2174430DA9C942CAB2B3
:1055F000684822144962218A482C1A87522536A904
:10560000304ABF14886143199E8EE32851E9702403
:10561000995044321200C0200D226C2707CEA1728F
:105620006C72E01C3607D14191B9641E9B1EA2B278
:105630006974261DD10CC1200D226C2F87CD4172BB
:105640006C72E01C3607D14191B9641E9B1EA2B258
:105650006974261DD10CC2210D226C1D07CE41128A
:10566000391639700E9B83E8A0C85C328F4D0F51FC
:10567000D9343A938E6806C31FED216C398947E609
:1056800098E4C0396C0EA2832273C93C363D446550
:10569000D3E84C3AA219C41FED216C27928BE45831
:1056A000E4C0396C0EA2832273C93C363D4465D3F5
:1056B000E84C3AA219C5210D226C2B8745E43039FC
:1056C0003639700E9B83E8A0C85C328F4D0F51D9DC
:1056D000343A938E6806C620901D8477B016A59143
:1056E000A134324A0C4DE421736C223E659C8682C3
:1056F000438970683910C71CEB656B5909CD265377
:10570000C9984E87CC21F3C838328DCDA474394C5A
:105710003E05C81E0B22642707CD617294036928D9
:105720001A8A464913A975221D254D4343D1F060BD
:10573000C91E0B22642F87CCE52807D25034148D64
:10574000922652EB443A4A9A8686A2E1C100CA1ECA
:105750000B22641D07CD2572F08134140D45A3A4DE
:1057600089D43A918E92A6A1A1687830CB1DEB2105
:105770006427928AE4E00369281A8A464913A975C6
:10578000221D254D4343D1F060CC0E07223C231D42
:10579000CB41A7E1FEE900CD0E07223C299CC9615F
:1057A000A7E1FEE900CE0E07223C179D49E490D305
:1057B00070FF74CF0EE7213CA32491434EC3FDD369
:1057C00001D01A8D21747110CF866BC3D974621BFE
:1057D0004D47D3D170369C2D1D8400D123EE21740A
:1057E0003B89432273546A691CA4068B29B46088E0
:1057F000148C5182C16294181EC645E51000D21B5C
:105800000C26742787CD817274F268361C0D2763CD
:10581000CF93E168381B8D8900D31B0C26742F07AA
:10582000CD217274F268361C0D2763CF93E168387E
:105830001B8D8900D41B0C26742B07D1457254F2A2
:1058400068361C0D2763CF93E168381B8D8900D51E
:105850001AEC2574390947E6C8E4D16C381A4EC6EB
:105860009E27C3D170361A1301D61AEC257427125D
:105870008BE4A8E4D16C381A4EC69E27C3D170368B
:105880001A1301D711082554138C8C26B6F1CC328B
:105890009A042300D820CCE5730F0C9262A3D97030
:1058A000349C0C23B6902966094E86A3E16C340B18
:1058B00011E34000D9210E22742B87CEC172D4533C
:1058C000691C1C07C7C171701C1C07C7C171741803
:1058D00026C9215400DA220E22740F9203E73039D0
:1058E000EAA9340E8E83E3E038380E8E83E3E03885
:1058F0003A0C93E4102A00DB210E22742F07D241C8
:10590000EA68A7D238380E8E83E3E038380E8E83EB
:10591000E3E8304C9243A800DC21EE21742B924343
:105920004472B453691C1C07C7C171701C1C07C7A3
:10593000C171741826C9215400DD230D1E640F9116
:10594000C3E62039E2A53494CEC2A338641287D0CE
:105950006173D81C3687CD6173C80D00DE188C21A9
:105960006C719F830EC1D9E268381A8E66B343709A
:105970000E9A5F01DF178A21545714ED936C329B06
:10598000896693D96436A14C282300E015892154F7
:10599000239F43E470D38A6C58124D4693096942A1
:1059A000E1158921542B9ECAE1A615D9B0249A8C01
:1059B0002613D28400E215892154179F4AE460D34C
:1059C0008A6C58124D4693096942E3156921543592
:1059D0008945E660D38A6C58124D4693096942E4C2
:1059E00015692154A32891834D2BB2614934194D77
:1059F00026A40901E515892154278E88E570D38AEC
:105A00006C58124D4693096942E6160D217C5321CC
:105A10002D4964A3D181229A8E661592885202E79D
:105A20001268614B551A956CD5996422A3CA8533C7
:105A300000E815892154259F43E4F0DA64ED7008ED
:105A40000F2523590900E9148921542B9ECA516A54
:105A500093B5C3213C948C642500EA15892154191F
:105A60009F4AE4E0DA64ED70080F2523590900EB42
:105A70001569215425114AE4E0DA64ED70080F2518
:105A800023590900EC0B852134211B8A49FB52ED77
:105A90000B852134279AC849FB52EE0C8521341519
:105AA0009BA892F6A500EF0B65213421A14849FB84
:105AB00052F014A9215C23874C8453897C589ADCCA
:105AC000BC4D166700F1166B1D5C398946E6700AFD
:105AD0008DB4369A8D66A3D9683669F2148A215C32
